{
  "contractName": "SpaceFactory",
  "abi": [
    {
      "inputs": [],
      "payable": false,
      "stateMutability": "nonpayable",
      "type": "constructor"
    },
    {
      "anonymous": false,
      "inputs": [
        {
          "indexed": true,
          "internalType": "address",
          "name": "space",
          "type": "address"
        }
      ],
      "name": "NewSpace",
      "type": "event"
    },
    {
      "constant": false,
      "inputs": [
        {
          "internalType": "string",
          "name": "name",
          "type": "string"
        },
        {
          "internalType": "address",
          "name": "tokenAddress",
          "type": "address"
        }
      ],
      "name": "createTokenSpace",
      "outputs": [],
      "payable": false,
      "stateMutability": "nonpayable",
      "type": "function"
    },
    {
      "constant": false,
      "inputs": [
        {
          "internalType": "string",
          "name": "name",
          "type": "string"
        },
        {
          "internalType": "address[]",
          "name": "invitees",
          "type": "address[]"
        }
      ],
      "name": "createSpace",
      "outputs": [],
      "payable": false,
      "stateMutability": "nonpayable",
      "type": "function"
    }
  ],
  "bytecode": "0x608060405234801561001057600080fd5b50613772806100206000396000f3fe60806040523480156200001157600080fd5b50600436106200003a5760003560e01c80633acf6d61146200003f578063a85fe3ca1462000116575b600080fd5b62000114600480360360408110156200005757600080fd5b81019080803590602001906401000000008111156200007557600080fd5b8201836020820111156200008857600080fd5b80359060200191846001830284011164010000000083111715620000ab57600080fd5b909192939192939080359060200190640100000000811115620000cd57600080fd5b820183602082011115620000e057600080fd5b803590602001918460208302840111640100000000831117156200010357600080fd5b9091929391929390505050620001b5565b005b620001b3600480360360408110156200012e57600080fd5b81019080803590602001906401000000008111156200014c57600080fd5b8201836020820111156200015f57600080fd5b803590602001918460018302840111640100000000831117156200018257600080fd5b9091929391929390803573ffffffffffffffffffffffffffffffffffffffff16906020019092919050505062000425565b005b60008484604051620001c79062000509565b80806020018281038252848482818152602001925080828437600081840152601f19601f8201169050808301925050509350505050604051809103906000f08015801562000219573d6000803e3d6000fd5b5090508073ffffffffffffffffffffffffffffffffffffffff16631cf995bb84846040518363ffffffff1660e01b815260040180806020018281038252848482818152602001925060200280828437600081840152601f19601f8201169050808301925050509350505050600060405180830381600087803b1580156200029f57600080fd5b505af1158015620002b4573d6000803e3d6000fd5b505050508073ffffffffffffffffffffffffffffffffffffffff16634b77c468336040518263ffffffff1660e01b8152600401808273ffffffffffffffffffffffffffffffffffffffff1673ffffffffffffffffffffffffffffffffffffffff168152602001915050600060405180830381600087803b1580156200033857600080fd5b505af11580156200034d573d6000803e3d6000fd5b505050503073ffffffffffffffffffffffffffffffffffffffff1663a85fe3ca8686846040518463ffffffff1660e01b815260040180806020018373ffffffffffffffffffffffffffffffffffffffff1673ffffffffffffffffffffffffffffffffffffffff1681526020018281038252858582818152602001925080828437600081840152601f19601f820116905080830192505050945050505050600060405180830381600087803b1580156200040557600080fd5b505af11580156200041a573d6000803e3d6000fd5b505050505050505050565b6000838383604051620004389062000517565b80806020018373ffffffffffffffffffffffffffffffffffffffff1673ffffffffffffffffffffffffffffffffffffffff1681526020018281038252858582818152602001925080828437600081840152601f19601f820116905080830192505050945050505050604051809103906000f080158015620004bd573d6000803e3d6000fd5b5090508073ffffffffffffffffffffffffffffffffffffffff167fd3414b42fedec9d6fae2b63d7dca8ba6f14cdb0e14af9b28c4eaae100717835d60405160405180910390a250505050565b612cc0806200052683390190565b61055880620031e68339019056fe60806040526000600c553480156200001657600080fd5b5060405162002cc038038062002cc0833981810160405260208110156200003c57600080fd5b81019080805160405193929190846401000000008211156200005d57600080fd5b838201915060208201858111156200007457600080fd5b82518660018202830111640100000000821117156200009257600080fd5b8083526020830192505050908051906020019080838360005b83811015620000c8578082015181840152602081019050620000ab565b50505050905090810190601f168015620000f65780820380516001836020036101000a031916815260200191505b50604052505050604051806020016040528060008152506040518060400160405280600381526020017f585858000000000000000000000000000000000000000000000000000000000081525081816200015d6301ffc9a760e01b6200020460201b60201c565b620001756380ac58cd60e01b6200020460201b60201c565b6200018d63780e9d6360e01b6200020460201b60201c565b8160099080519060200190620001a592919062000715565b5080600a9080519060200190620001be92919062000715565b50620001d7635b5e139f60e01b6200020460201b60201c565b50505050620001fd33600c6000815480929190600101919050556200030d60201b60201c565b50620007c4565b63ffffffff60e01b817bffffffffffffffffffffffffffffffffffffffffffffffffffffffff19161415620002a1576040517f08c379a000000000000000000000000000000000000000000000000000000000815260040180806020018281038252601c8152602001807f4552433136353a20696e76616c696420696e746572666163652069640000000081525060200191505060405180910390fd5b6001600080837bffffffffffffffffffffffffffffffffffffffffffffffffffffffff19167bffffffffffffffffffffffffffffffffffffffffffffffffffffffff1916815260200190815260200160002060006101000a81548160ff02191690831515021790555050565b6200032482826200034b60201b620019751760201c565b6200033682826200057a60201b60201c565b62000347816200064160201b60201c565b5050565b600073ffffffffffffffffffffffffffffffffffffffff168273ffffffffffffffffffffffffffffffffffffffff161415620003ef576040517f08c379a00000000000000000000000000000000000000000000000000000000081526004018080602001828103825260208152602001807f4552433732313a206d696e7420746f20746865207a65726f206164647265737381525060200191505060405180910390fd5b62000400816200068d60201b60201c565b1562000474576040517f08c379a000000000000000000000000000000000000000000000000000000000815260040180806020018281038252601c8152602001807f4552433732313a20746f6b656e20616c7265616479206d696e7465640000000081525060200191505060405180910390fd5b816001600083815260200190815260200160002060006101000a81548173ffffffffffffffffffffffffffffffffffffffff021916908373ffffffffffffffffffffffffffffffffffffffff1602179055506200051a600360008473ffffffffffffffffffffffffffffffffffffffff1673ffffffffffffffffffffffffffffffffffffffff168152602001908152602001600020620006ff60201b620020ac1760201c565b808273ffffffffffffffffffffffffffffffffffffffff16600073ffffffffffffffffffffffffffffffffffffffff167fddf252ad1be2c89b69c2b068fc378daa952ba7f163c4a11628f55a4df523b3ef60405160405180910390a45050565b600560008373ffffffffffffffffffffffffffffffffffffffff1673ffffffffffffffffffffffffffffffffffffffff168152602001908152602001600020805490506006600083815260200190815260200160002081905550600560008373ffffffffffffffffffffffffffffffffffffffff1673ffffffffffffffffffffffffffffffffffffffff1681526020019081526020016000208190806001815401808255809150509060018203906000526020600020016000909192909190915055505050565b6007805490506008600083815260200190815260200160002081905550600781908060018154018082558091505090600182039060005260206000200160009091929091909150555050565b6000806001600084815260200190815260200160002060009054906101000a900473ffffffffffffffffffffffffffffffffffffffff169050600073ffffffffffffffffffffffffffffffffffffffff168173ffffffffffffffffffffffffffffffffffffffff161415915050919050565b6001816000016000828254019250508190555050565b828054600181600116156101000203166002900490600052602060002090601f016020900481019282601f106200075857805160ff191683800117855562000789565b8280016001018555821562000789579182015b82811115620007885782518255916020019190600101906200076b565b5b5090506200079891906200079c565b5090565b620007c191905b80821115620007bd576000816000905550600101620007a3565b5090565b90565b6124ec80620007d46000396000f3fe608060405234801561001057600080fd5b50600436106101165760003560e01c80634b77c468116100a257806395d89b411161007157806395d89b411461061f578063a22cb465146106a2578063b88d4fde146106f2578063c87b56dd146107f7578063e985e9c51461089e57610116565b80634b77c468146104d35780634f6ccce7146105175780636352211e1461055957806370a08231146105c757610116565b806318160ddd116100e957806318160ddd146102bf5780631cf995bb146102dd57806323b872dd146103955780632f745c591461040357806342842e0e1461046557610116565b806301ffc9a71461011b57806306fdde0314610180578063081812fc14610203578063095ea7b314610271575b600080fd5b6101666004803603602081101561013157600080fd5b8101908080357bffffffffffffffffffffffffffffffffffffffffffffffffffffffff1916906020019092919050505061091a565b604051808215151515815260200191505060405180910390f35b610188610981565b6040518080602001828103825283818151815260200191508051906020019080838360005b838110156101c85780820151818401526020810190506101ad565b50505050905090810190601f1680156101f55780820380516001836020036101000a031916815260200191505b509250505060405180910390f35b61022f6004803603602081101561021957600080fd5b8101908080359060200190929190505050610a23565b604051808273ffffffffffffffffffffffffffffffffffffffff1673ffffffffffffffffffffffffffffffffffffffff16815260200191505060405180910390f35b6102bd6004803603604081101561028757600080fd5b81019080803573ffffffffffffffffffffffffffffffffffffffff16906020019092919080359060200190929190505050610abe565b005b6102c7610c97565b6040518082815260200191505060405180910390f35b610393600480360360208110156102f357600080fd5b810190808035906020019064010000000081111561031057600080fd5b82018360208201111561032257600080fd5b8035906020019184602083028401116401000000008311171561034457600080fd5b919080806020026020016040519081016040528093929190818152602001838360200280828437600081840152601f19601f820116905080830192505050505050509192919290505050610ca4565b005b610401600480360360608110156103ab57600080fd5b81019080803573ffffffffffffffffffffffffffffffffffffffff169060200190929190803573ffffffffffffffffffffffffffffffffffffffff16906020019092919080359060200190929190505050610d6f565b005b61044f6004803603604081101561041957600080fd5b81019080803573ffffffffffffffffffffffffffffffffffffffff16906020019092919080359060200190929190505050610dde565b6040518082815260200191505060405180910390f35b6104d16004803603606081101561047b57600080fd5b81019080803573ffffffffffffffffffffffffffffffffffffffff169060200190929190803573ffffffffffffffffffffffffffffffffffffffff16906020019092919080359060200190929190505050610e9d565b005b610515600480360360208110156104e957600080fd5b81019080803573ffffffffffffffffffffffffffffffffffffffff169060200190929190505050610ebd565b005b6105436004803603602081101561052d57600080fd5b8101908080359060200190929190505050610f58565b6040518082815260200191505060405180910390f35b6105856004803603602081101561056f57600080fd5b8101908080359060200190929190505050610fd8565b604051808273ffffffffffffffffffffffffffffffffffffffff1673ffffffffffffffffffffffffffffffffffffffff16815260200191505060405180910390f35b610609600480360360208110156105dd57600080fd5b81019080803573ffffffffffffffffffffffffffffffffffffffff1690602001909291905050506110a0565b6040518082815260200191505060405180910390f35b610627611175565b6040518080602001828103825283818151815260200191508051906020019080838360005b8381101561066757808201518184015260208101905061064c565b50505050905090810190601f1680156106945780820380516001836020036101000a031916815260200191505b509250505060405180910390f35b6106f0600480360360408110156106b857600080fd5b81019080803573ffffffffffffffffffffffffffffffffffffffff169060200190929190803515159060200190929190505050611217565b005b6107f56004803603608081101561070857600080fd5b81019080803573ffffffffffffffffffffffffffffffffffffffff169060200190929190803573ffffffffffffffffffffffffffffffffffffffff169060200190929190803590602001909291908035906020019064010000000081111561076f57600080fd5b82018360208201111561078157600080fd5b803590602001918460018302840111640100000000831117156107a357600080fd5b91908080601f016020809104026020016040519081016040528093929190818152602001838380828437600081840152601f19601f8201169050808301925050505050505091929192905050506113ba565b005b6108236004803603602081101561080d57600080fd5b810190808035906020019092919050505061142c565b6040518080602001828103825283818151815260200191508051906020019080838360005b83811015610863578082015181840152602081019050610848565b50505050905090810190601f1680156108905780820380516001836020036101000a031916815260200191505b509250505060405180910390f35b610900600480360360408110156108b457600080fd5b81019080803573ffffffffffffffffffffffffffffffffffffffff169060200190929190803573ffffffffffffffffffffffffffffffffffffffff16906020019092919050505061153f565b604051808215151515815260200191505060405180910390f35b6000806000837bffffffffffffffffffffffffffffffffffffffffffffffffffffffff19167bffffffffffffffffffffffffffffffffffffffffffffffffffffffff1916815260200190815260200160002060009054906101000a900460ff169050919050565b606060098054600181600116156101000203166002900480601f016020809104026020016040519081016040528092919081815260200182805460018160011615610100020316600290048015610a195780601f106109ee57610100808354040283529160200191610a19565b820191906000526020600020905b8154815290600101906020018083116109fc57829003601f168201915b5050505050905090565b6000610a2e826115d3565b610a83576040517f08c379a000000000000000000000000000000000000000000000000000000000815260040180806020018281038252602c8152602001806123b6602c913960400191505060405180910390fd5b6002600083815260200190815260200160002060009054906101000a900473ffffffffffffffffffffffffffffffffffffffff169050919050565b6000610ac982610fd8565b90508073ffffffffffffffffffffffffffffffffffffffff168373ffffffffffffffffffffffffffffffffffffffff161415610b50576040517f08c379a000000000000000000000000000000000000000000000000000000000815260040180806020018281038252602181526020018061243a6021913960400191505060405180910390fd5b8073ffffffffffffffffffffffffffffffffffffffff163373ffffffffffffffffffffffffffffffffffffffff161480610b905750610b8f813361153f565b5b610be5576040517f08c379a000000000000000000000000000000000000000000000000000000000815260040180806020018281038252603881526020018061232b6038913960400191505060405180910390fd5b826002600084815260200190815260200160002060006101000a81548173ffffffffffffffffffffffffffffffffffffffff021916908373ffffffffffffffffffffffffffffffffffffffff160217905550818373ffffffffffffffffffffffffffffffffffffffff168273ffffffffffffffffffffffffffffffffffffffff167f8c5be1e5ebec7d5bd14f71427d1e84f3dd0314c0f7b2291e5b200ac8c7c3b92560405160405180910390a4505050565b6000600780549050905090565b6000610caf336110a0565b11610d22576040517f08c379a000000000000000000000000000000000000000000000000000000000815260040180806020018281038252600d8152602001807f4e6f742061206d656d6265722e0000000000000000000000000000000000000081525060200191505060405180910390fd5b60008090505b8151811015610d6b57610d5e828281518110610d4057fe5b6020026020010151600c600081548092919060010191905055611645565b8080600101915050610d28565b5050565b610d793382611666565b610dce576040517f08c379a000000000000000000000000000000000000000000000000000000000815260040180806020018281038252603181526020018061245b6031913960400191505060405180910390fd5b610dd983838361175a565b505050565b6000610de9836110a0565b8210610e40576040517f08c379a000000000000000000000000000000000000000000000000000000000815260040180806020018281038252602b81526020018061227e602b913960400191505060405180910390fd5b600560008473ffffffffffffffffffffffffffffffffffffffff1673ffffffffffffffffffffffffffffffffffffffff1681526020019081526020016000208281548110610e8a57fe5b9060005260206000200154905092915050565b610eb8838383604051806020016040528060008152506113ba565b505050565b6000610ec8336110a0565b11610f3b576040517f08c379a000000000000000000000000000000000000000000000000000000000815260040180806020018281038252600d8152602001807f4e6f742061206d656d6265722e0000000000000000000000000000000000000081525060200191505060405180910390fd5b610f5581600c600081548092919060010191905055611645565b50565b6000610f62610c97565b8210610fb9576040517f08c379a000000000000000000000000000000000000000000000000000000000815260040180806020018281038252602c81526020018061248c602c913960400191505060405180910390fd5b60078281548110610fc657fe5b90600052602060002001549050919050565b6000806001600084815260200190815260200160002060009054906101000a900473ffffffffffffffffffffffffffffffffffffffff169050600073ffffffffffffffffffffffffffffffffffffffff168173ffffffffffffffffffffffffffffffffffffffff161415611097576040517f08c379a000000000000000000000000000000000000000000000000000000000815260040180806020018281038252602981526020018061238d6029913960400191505060405180910390fd5b80915050919050565b60008073ffffffffffffffffffffffffffffffffffffffff168273ffffffffffffffffffffffffffffffffffffffff161415611127576040517f08c379a000000000000000000000000000000000000000000000000000000000815260040180806020018281038252602a815260200180612363602a913960400191505060405180910390fd5b61116e600360008473ffffffffffffffffffffffffffffffffffffffff1673ffffffffffffffffffffffffffffffffffffffff16815260200190815260200160002061177e565b9050919050565b6060600a8054600181600116156101000203166002900480601f01602080910402602001604051908101604052809291908181526020018280546001816001161561010002031660029004801561120d5780601f106111e25761010080835404028352916020019161120d565b820191906000526020600020905b8154815290600101906020018083116111f057829003601f168201915b5050505050905090565b3373ffffffffffffffffffffffffffffffffffffffff168273ffffffffffffffffffffffffffffffffffffffff1614156112b9576040517f08c379a00000000000000000000000000000000000000000000000000000000081526004018080602001828103825260198152602001807f4552433732313a20617070726f766520746f2063616c6c65720000000000000081525060200191505060405180910390fd5b80600460003373ffffffffffffffffffffffffffffffffffffffff1673ffffffffffffffffffffffffffffffffffffffff16815260200190815260200160002060008473ffffffffffffffffffffffffffffffffffffffff1673ffffffffffffffffffffffffffffffffffffffff16815260200190815260200160002060006101000a81548160ff0219169083151502179055508173ffffffffffffffffffffffffffffffffffffffff163373ffffffffffffffffffffffffffffffffffffffff167f17307eab39ab6107e8899845ad3d59bd9653f200f220920489ca2b5937696c3183604051808215151515815260200191505060405180910390a35050565b6113c5848484610d6f565b6113d18484848461178c565b611426576040517f08c379a00000000000000000000000000000000000000000000000000000000081526004018080602001828103825260328152602001806122a96032913960400191505060405180910390fd5b50505050565b6060611437826115d3565b61148c576040517f08c379a000000000000000000000000000000000000000000000000000000000815260040180806020018281038252602f81526020018061240b602f913960400191505060405180910390fd5b600b60008381526020019081526020016000208054600181600116156101000203166002900480601f0160208091040260200160405190810160405280929190818152602001828054600181600116156101000203166002900480156115335780601f1061150857610100808354040283529160200191611533565b820191906000526020600020905b81548152906001019060200180831161151657829003601f168201915b50505050509050919050565b6000600460008473ffffffffffffffffffffffffffffffffffffffff1673ffffffffffffffffffffffffffffffffffffffff16815260200190815260200160002060008373ffffffffffffffffffffffffffffffffffffffff1673ffffffffffffffffffffffffffffffffffffffff16815260200190815260200160002060009054906101000a900460ff16905092915050565b6000806001600084815260200190815260200160002060009054906101000a900473ffffffffffffffffffffffffffffffffffffffff169050600073ffffffffffffffffffffffffffffffffffffffff168173ffffffffffffffffffffffffffffffffffffffff161415915050919050565b61164f8282611975565b6116598282611b8d565b61166281611c54565b5050565b6000611671826115d3565b6116c6576040517f08c379a000000000000000000000000000000000000000000000000000000000815260040180806020018281038252602c8152602001806122ff602c913960400191505060405180910390fd5b60006116d183610fd8565b90508073ffffffffffffffffffffffffffffffffffffffff168473ffffffffffffffffffffffffffffffffffffffff16148061174057508373ffffffffffffffffffffffffffffffffffffffff1661172884610a23565b73ffffffffffffffffffffffffffffffffffffffff16145b806117515750611750818561153f565b5b91505092915050565b611765838383611ca0565b61176f8382611efb565b6117798282611b8d565b505050565b600081600001549050919050565b60006117ad8473ffffffffffffffffffffffffffffffffffffffff16612099565b6117ba576001905061196d565b60008473ffffffffffffffffffffffffffffffffffffffff1663150b7a02338887876040518563ffffffff1660e01b8152600401808573ffffffffffffffffffffffffffffffffffffffff1673ffffffffffffffffffffffffffffffffffffffff1681526020018473ffffffffffffffffffffffffffffffffffffffff1673ffffffffffffffffffffffffffffffffffffffff16815260200183815260200180602001828103825283818151815260200191508051906020019080838360005b8381101561189557808201518184015260208101905061187a565b50505050905090810190601f1680156118c25780820380516001836020036101000a031916815260200191505b5095505050505050602060405180830381600087803b1580156118e457600080fd5b505af11580156118f8573d6000803e3d6000fd5b505050506040513d602081101561190e57600080fd5b8101908080519060200190929190505050905063150b7a0260e01b7bffffffffffffffffffffffffffffffffffffffffffffffffffffffff1916817bffffffffffffffffffffffffffffffffffffffffffffffffffffffff1916149150505b949350505050565b600073ffffffffffffffffffffffffffffffffffffffff168273ffffffffffffffffffffffffffffffffffffffff161415611a18576040517f08c379a00000000000000000000000000000000000000000000000000000000081526004018080602001828103825260208152602001807f4552433732313a206d696e7420746f20746865207a65726f206164647265737381525060200191505060405180910390fd5b611a21816115d3565b15611a94576040517f08c379a000000000000000000000000000000000000000000000000000000000815260040180806020018281038252601c8152602001807f4552433732313a20746f6b656e20616c7265616479206d696e7465640000000081525060200191505060405180910390fd5b816001600083815260200190815260200160002060006101000a81548173ffffffffffffffffffffffffffffffffffffffff021916908373ffffffffffffffffffffffffffffffffffffffff160217905550611b2d600360008473ffffffffffffffffffffffffffffffffffffffff1673ffffffffffffffffffffffffffffffffffffffff1681526020019081526020016000206120ac565b808273ffffffffffffffffffffffffffffffffffffffff16600073ffffffffffffffffffffffffffffffffffffffff167fddf252ad1be2c89b69c2b068fc378daa952ba7f163c4a11628f55a4df523b3ef60405160405180910390a45050565b600560008373ffffffffffffffffffffffffffffffffffffffff1673ffffffffffffffffffffffffffffffffffffffff168152602001908152602001600020805490506006600083815260200190815260200160002081905550600560008373ffffffffffffffffffffffffffffffffffffffff1673ffffffffffffffffffffffffffffffffffffffff1681526020019081526020016000208190806001815401808255809150509060018203906000526020600020016000909192909190915055505050565b6007805490506008600083815260200190815260200160002081905550600781908060018154018082558091505090600182039060005260206000200160009091929091909150555050565b8273ffffffffffffffffffffffffffffffffffffffff16611cc082610fd8565b73ffffffffffffffffffffffffffffffffffffffff1614611d2c576040517f08c379a00000000000000000000000000000000000000000000000000000000081526004018080602001828103825260298152602001806123e26029913960400191505060405180910390fd5b600073ffffffffffffffffffffffffffffffffffffffff168273ffffffffffffffffffffffffffffffffffffffff161415611db2576040517f08c379a00000000000000000000000000000000000000000000000000000000081526004018080602001828103825260248152602001806122db6024913960400191505060405180910390fd5b611dbb816120c2565b611e02600360008573ffffffffffffffffffffffffffffffffffffffff1673ffffffffffffffffffffffffffffffffffffffff168152602001908152602001600020612180565b611e49600360008473ffffffffffffffffffffffffffffffffffffffff1673ffffffffffffffffffffffffffffffffffffffff1681526020019081526020016000206120ac565b816001600083815260200190815260200160002060006101000a81548173ffffffffffffffffffffffffffffffffffffffff021916908373ffffffffffffffffffffffffffffffffffffffff160217905550808273ffffffffffffffffffffffffffffffffffffffff168473ffffffffffffffffffffffffffffffffffffffff167fddf252ad1be2c89b69c2b068fc378daa952ba7f163c4a11628f55a4df523b3ef60405160405180910390a4505050565b6000611f536001600560008673ffffffffffffffffffffffffffffffffffffffff1673ffffffffffffffffffffffffffffffffffffffff168152602001908152602001600020805490506121a390919063ffffffff16565b9050600060066000848152602001908152602001600020549050818114612040576000600560008673ffffffffffffffffffffffffffffffffffffffff1673ffffffffffffffffffffffffffffffffffffffff1681526020019081526020016000208381548110611fc057fe5b9060005260206000200154905080600560008773ffffffffffffffffffffffffffffffffffffffff1673ffffffffffffffffffffffffffffffffffffffff168152602001908152602001600020838154811061201857fe5b9060005260206000200181905550816006600083815260200190815260200160002081905550505b600560008573ffffffffffffffffffffffffffffffffffffffff1673ffffffffffffffffffffffffffffffffffffffff168152602001908152602001600020805480919060019003612092919061222c565b5050505050565b600080823b905060008111915050919050565b6001816000016000828254019250508190555050565b600073ffffffffffffffffffffffffffffffffffffffff166002600083815260200190815260200160002060009054906101000a900473ffffffffffffffffffffffffffffffffffffffff1673ffffffffffffffffffffffffffffffffffffffff161461217d5760006002600083815260200190815260200160002060006101000a81548173ffffffffffffffffffffffffffffffffffffffff021916908373ffffffffffffffffffffffffffffffffffffffff1602179055505b50565b612198600182600001546121a390919063ffffffff16565b816000018190555050565b60008282111561221b576040517f08c379a000000000000000000000000000000000000000000000000000000000815260040180806020018281038252601e8152602001807f536166654d6174683a207375627472616374696f6e206f766572666c6f77000081525060200191505060405180910390fd5b600082840390508091505092915050565b815481835581811115612253578183600052602060002091820191016122529190612258565b5b505050565b61227a91905b8082111561227657600081600090555060010161225e565b5090565b9056fe455243373231456e756d657261626c653a206f776e657220696e646578206f7574206f6620626f756e64734552433732313a207472616e7366657220746f206e6f6e20455243373231526563656976657220696d706c656d656e7465724552433732313a207472616e7366657220746f20746865207a65726f20616464726573734552433732313a206f70657261746f7220717565727920666f72206e6f6e6578697374656e7420746f6b656e4552433732313a20617070726f76652063616c6c6572206973206e6f74206f776e6572206e6f7220617070726f76656420666f7220616c6c4552433732313a2062616c616e636520717565727920666f7220746865207a65726f20616464726573734552433732313a206f776e657220717565727920666f72206e6f6e6578697374656e7420746f6b656e4552433732313a20617070726f76656420717565727920666f72206e6f6e6578697374656e7420746f6b656e4552433732313a207472616e73666572206f6620746f6b656e2074686174206973206e6f74206f776e4552433732314d657461646174613a2055524920717565727920666f72206e6f6e6578697374656e7420746f6b656e4552433732313a20617070726f76616c20746f2063757272656e74206f776e65724552433732313a207472616e736665722063616c6c6572206973206e6f74206f776e6572206e6f7220617070726f766564455243373231456e756d657261626c653a20676c6f62616c20696e646578206f7574206f6620626f756e6473a265627a7a72315820158618d903df72e9a3edb2507d98665556345505a17c6896215452616146f67964736f6c63430005100032608060405234801561001057600080fd5b506040516105583803806105588339818101604052604081101561003357600080fd5b810190808051604051939291908464010000000082111561005357600080fd5b8382019150602082018581111561006957600080fd5b825186600182028301116401000000008211171561008657600080fd5b8083526020830192505050908051906020019080838360005b838110156100ba57808201518184015260208101905061009f565b50505050905090810190601f1680156100e75780820380516001836020036101000a031916815260200191505b50604052602001805190602001909291905050508160019080519060200190610111929190610159565b50806000806101000a81548173ffffffffffffffffffffffffffffffffffffffff021916908373ffffffffffffffffffffffffffffffffffffffff16021790555050506101fe565b828054600181600116156101000203166002900490600052602060002090601f016020900481019282601f1061019a57805160ff19168380011785556101c8565b828001600101855582156101c8579182015b828111156101c75782518255916020019190600101906101ac565b5b5090506101d591906101d9565b5090565b6101fb91905b808211156101f75760008160009055506001016101df565b5090565b90565b61034b8061020d6000396000f3fe608060405234801561001057600080fd5b50600436106100415760003560e01c806306fdde0314610046578063a230c524146100c9578063fc0c546a14610125575b600080fd5b61004e61016f565b6040518080602001828103825283818151815260200191508051906020019080838360005b8381101561008e578082015181840152602081019050610073565b50505050905090810190601f1680156100bb5780820380516001836020036101000a031916815260200191505b509250505060405180910390f35b61010b600480360360208110156100df57600080fd5b81019080803573ffffffffffffffffffffffffffffffffffffffff16906020019092919050505061020d565b604051808215151515815260200191505060405180910390f35b61012d6102f1565b604051808273ffffffffffffffffffffffffffffffffffffffff1673ffffffffffffffffffffffffffffffffffffffff16815260200191505060405180910390f35b60018054600181600116156101000203166002900480601f0160208091040260200160405190810160405280929190818152602001828054600181600116156101000203166002900480156102055780601f106101da57610100808354040283529160200191610205565b820191906000526020600020905b8154815290600101906020018083116101e857829003601f168201915b505050505081565b6000806000809054906101000a900473ffffffffffffffffffffffffffffffffffffffff1673ffffffffffffffffffffffffffffffffffffffff166370a08231846040518263ffffffff1660e01b8152600401808273ffffffffffffffffffffffffffffffffffffffff1673ffffffffffffffffffffffffffffffffffffffff16815260200191505060206040518083038186803b1580156102ae57600080fd5b505afa1580156102c2573d6000803e3d6000fd5b505050506040513d60208110156102d857600080fd5b8101908080519060200190929190505050119050919050565b6000809054906101000a900473ffffffffffffffffffffffffffffffffffffffff168156fea265627a7a723158202d5f0294711ef8bf04e3b472b7f541331e22e6162ccf93e113dd37452cac02a064736f6c63430005100032a265627a7a72315820882fdc798529a8b7fe75cd8dbb0c7d372dd43c686c86b3c03061d331367080fe64736f6c63430005100032",
  "source": "pragma solidity >=0.4.21 <0.6.0;\n\nimport \"./Space.sol\";\nimport \"./tokens/MembershipToken.sol\";\n\ncontract SpaceFactory {\n    event NewSpace(address indexed space);\n\n    constructor() public {\n    }\n\n    function createTokenSpace(string calldata name, address tokenAddress) external {\n        Space space = new Space(name, tokenAddress);\n        emit NewSpace(address(space));\n    }\n\n    function createSpace(string calldata name, address[] calldata invitees) external {\n        // create new ERC721\n        MembershipToken memberToken = new MembershipToken(name);\n        // mint it to creator\n        memberToken.inviteMembers(invitees);\n        memberToken.invite(msg.sender);\n        this.createTokenSpace(name, address(memberToken));\n    }\n}\n",
  "sourcePath": "/Users/liamz/Documents/open-source/ciaodao/contracts/contracts/SpaceFactory.sol",
  "compiler": {
    "name": "solc",
    "version": "0.5.16+commit.9c3226ce.Emscripten.clang"
  },
  "schemaVersion": "3.0.23",
  "updatedAt": "2020-02-23T05:27:08.340Z",
  "networkType": "ethereum",
  "devdoc": {
    "methods": {}
  },
  "userdoc": {
    "methods": {}
  }
}